:020000040800F2
:1000000098260020CD0200083F380008633200081F
:100010003D380008DD1D0008453E000800000000D6
:100020000000000000000000000000003502000891
:10003000EB1D00080000000079020008B93A000832
:10004000E7020008E7020008E7020008E7020008EC
:10005000E7020008E7020008E7020008E7020008DC
:10006000E7020008E7020008E7020008E7020008CC
:10007000E7020008E7020008E7020008E7020008BC
:10008000E7020008E7020008E7020008E7020008AC
:10009000E7020008E7020008E7020008E70200089C
:1000A000E7020008453B0008E7020008E7020008F5
:1000B000E7020008E7020008E7020008E70200087C
:1000C000E7020008E7020008E7020008E70200086C
:1000D000E7020008E7020008393E0008E7020008CE
:1000E000E7020008E7020008E702000800F002F853
:1000F00000F090F80AA090E8000C82448344AAF132
:100100000107DA4501D100F085F8AFF2090EBAE82F
:100110000F0013F0010F18BFFB1A43F0010318473B
:10012000AC5B0000CC5B0000103A24BF78C878C1FB
:10013000FAD8520724BF30C830C144BF04680C60ED
:10014000704700000023002400250026103A28BF35
:1001500078C1FBD8520728BF30C148BF0B60704739
:100160006E2900F0FB81702900F03D83662905F0BF
:100170009182652905F08E82672905F08B826129BD
:1001800005F08A8203681B0A28BF41F080016929B3
:1001900000F0A881642900F0A581752900F0A281F2
:1001A0006F2900F0CA82782900F00983E92900F05C
:1001B0006582E42900F06282F52900F05F82EF2970
:1001C00000F0C782F82900F008830368DB0928BF24
:1001D00041F08001632901F05F80732901F06480A0
:1001E000E32901F06F80F32901F07480002070474B
:1001F0001FB501F0C1F804000020002105F034FA19
:10020000401C60600020002105F018FAE0601FBD6E
:1002100010B510BD01F082F81146FFF7E9FF03F0B9
:100220003DFE01F05FF903B4FFF7F2FF03BC01F0FC
:10023000A7F90000224B19680868B0E8F00F80F3B6
:100240000988BFF36F8F4FF0000080F311884EF0E4
:100250000D0E70470000000006480068006880F33B
:10026000088862B661B6BFF34F8FBFF36F8F00DFB0
:1002700000BF00BF08ED00E0EFF30980BFF36F8F10
:100280000F4B1A6820E9F00F106008B54FF05000CE
:1002900080F31188BFF34F8FBFF36F8F04F0DEFC44
:1002A0004FF0000080F31188BDE808401968086825
:1002B000B0E8F00F80F30988BFF36F8F704700BF7D
:1002C00024000020EFF305807047000009488047B4
:1002D00009480047FEE7FEE7FEE7FEE7FEE7FEE728
:1002E000FEE7FEE7FEE7FEE704480549054A064B40
:1002F00070470000433B0008ED00000898200020F4
:100300009826002098220020982200201CB50C4638
:10031000064B7B4469460090204600F038F90446BD
:100320000020694600F046F920461CBD9F020000EF
:10033000032A40F2308010F0030C00F0158011F811
:10034000013BBCF1020F624498BF11F801CB00F8E9
:10035000013B38BF11F8013BA2F1040298BF00F83D
:1003600001CB38BF00F8013B11F0030300F00A8312
:10037000083AC0F0088051F8043B083A51F804CB21
:10038000A0E80810F5E7121D5CBF51F8043B40F8E7
:10039000043BAFF30080D20724BF11F8013B11F8F2
:1003A00001CB48BF11F8012B24BF00F8013B00F836
:1003B00001CB48BF00F8012B704702F0FF0343EA6E
:1003C000032242EA024200F011BB4FF0000200B5E6
:1003D000134694469646203922BFA0E80C50A0E868
:1003E0000C50B1F12001BFF4F7AF090728BFA0E816
:1003F0000C5048BF0CC05DF804EB890028BF40F8E2
:10040000042B08BF704748BF20F8022B11F0804F23
:1004100018BF00F8012B704770477047704770B5E0
:10042000044685690068C10601D5302600E0202613
:10043000C00707D070BDD4E9012130469047206A3B
:10044000401C20626D1EF6D570BD70B504468569EE
:100450000078C00707D170BDD4E901212020904762
:10046000206A401C20626D1EF6D570BD09684A05E1
:1004700001D540B27047C905FCD500B27047096884
:100480004A0501D5C0B27047C905FCD580B2704796
:1004900070B50C460546012A05D02878800600D59F
:1004A000EA69002302E0012305E05B1C934202D2CB
:1004B000E05C0028F9D1A869E618C01AA861286A8A
:1004C000184428622846FFF7AAFF04E0D5E9012175
:1004D00014F8010B9047B442F8D32846FFF7B5FF54
:1004E00070BD00002DE9F041064600241068752912
:1004F000314616A510D0FFF7B9FF002802DA4042B6
:1005000013A507E031688A0701D512A502E0490763
:1005100004D511A5012401E0FFF7B1FF00210A2253
:1005200006F1240709E0B0FBF2FCB0FBF2F302FB9A
:100530001C00303078541846491C0028F3D123465B
:100540002A463046BDE8F04100F0B5BA0000000090
:100550002D0000002B000000200000001168026840
:10056000006A530501D508700AE0D30501D508805B
:1005700006E0130603D5C217C1E9000200E00860D7
:100580000120704701694A1C02610878704700B574
:100590008FB0CDE901310021059105497944CDE9BC
:1005A00003101146684600F029F90FB000BD0000A5
:1005B000E5FFFFFF0A6802F8010B0A6070470000C0
:1005C0002DE9FF5F15468A460446DFF8AC80F84403
:1005D0000027D8E900103E46CDE9001010E03AF8B7
:1005E00016106A4602A800F079FE411C07D0217857
:1005F000890603D5E269391891420DD80744761C63
:100600002078800602D5E069B84205DDAE42E6DB1F
:100610003AF816000028E2D1A069C01BA06120466C
:10062000FFF7FDFED8E90010CDE90010002017E02B
:100630003AF818106A4602A800F050FEB0F1FF3FE9
:1006400081460BD000250DF1080B05E0D4E901210E
:100650001BF8050090476D1C4D45F7D308F10100CC
:10066000B0428046E4DB206A384420622046FFF72F
:10067000ECFEBDE8FF9F0000D65500002DE9F041DB
:100680008046D21D22F007020025D2E90002F5299A
:1006900015A614D0011E72F1000106DA0023D0EB7A
:1006A000030063EB020211A608E0D8F800108B07E4
:1006B00001D50FA602E0490701D50EA60125114676
:1006C000002408F1240704E000F0B0F930323A5574
:1006D000641C50EA0102F7D12B46324621464046BF
:1006E000BDE8F04100F0E7B9000000002D00000077
:1006F0002B0000002000000030B4002100F1240491
:1007000008E002F00705D208303542EA4372DB0800
:100710006554491C52EA0305F3D10468002310A272
:10072000250707D5A40600D421B1C46901230DA271
:10073000641EC46130BC00F0BEB910B50446214649
:100740001068FFF79CFE02462046BDE810400023DB
:10075000D2E7D21D22F00701D1E90023CCE7000047
:100760000000000030000000F0B40D4601880905CB
:1007700002D5214C7C4402E01F4C7C440E34002105
:1007800000F1240608E002F00F071209E75D42EAD3
:1007900003721B097754491C52EA0307F3D102780C
:1007A0000023120704D5702D06D009B1022311349D
:1007B0002246F0BC00F07FB901231034F8E770B591
:1007C00004460D4621461068FFF759FE02462946A9
:1007D0002046BDE870400023C6E7D21D22F0070383
:1007E000D3E90023C0E70368126843F020030360E5
:1007F0000823C3610023B7E7385400002DE9F05FF8
:10080000894604464FF0000ADFF874B1FB44C0F893
:1008100020A02046E1688847002874D0252806D00B
:10082000D4E901219047206A401C2062F1E70026AC
:100830005F462046E16888472028054607DB312DC2
:1008400005D2781910F8200C08B10643F1E7B0077B
:1008500001D526F00406C4F81CA00027C4F818A08F
:100860002A2D09D0284603F012FB38B304EB870881
:10087000303DC8F8185019E059F8041B204604EB25
:1008800087029161E1688847012F054618D1E06928
:10089000002820DA26F020061DE0D8F8180000EB2A
:1008A000800005EB40003038C8F818002046E168A9
:1008B0008847054603F0EBFA0028EED1012F0AD055
:1008C0002E2D08D12046E16888477F1C0546022F5F
:1008D00046F02006C4DBA069002803DA404246F057
:1008E0000106A061F00701D026F010066C2D0BD098
:1008F000682D09D04C2D39D06A2D35D0742D35D0C6
:100900007A2D33D016E038E0E1682F46204688473C
:10091000B842054609D16C2F26D04FF48060E168BB
:10092000064320468847054604E06C2F1AD04FF452
:10093000807006430DB3A5F14100192802D8203577
:1009400046F400664A462946204626604E46FFF792
:1009500007FC80B101280BD0F61D26F0070000F13E
:10096000080956E74020E4E78020D8E70020D6E7D2
:1009700006F104094DE7284652E7206ABDE8F09FDA
:10098000C853000010B5203AC0F00B80B1E81850F1
:10099000203AA0E81850B1E81850A0E81850BFF469
:1009A000F5AF5FEA027C24BFB1E81850A0E8185008
:1009B00044BF18C918C0BDE810405FEA827C24BF5C
:1009C00051F8043B40F8043B08BF7047D20728BFEA
:1009D00031F8023B48BF11F8012B28BF20F8023B39
:1009E00048BF00F8012B70474FF000020429C0F007
:1009F000128010F0030C3FF4EAACCCF1040CBCF113
:100A0000020F18BF00F8012BA8BF20F8022BA1EBA2
:100A10000C01FFF7DCBC5FEAC17C24BF00F8012BAE
:100A200000F8012B48BF00F8012B704730B5B0F13A
:100A30000A024FEA900E71F100034EEA817EB0EB9C
:100A40000E0061EB91014FEA101E4EEA017E10EBA1
:100A50000E0041EB11114FEA102E4EEA016E10EB21
:100A60000E0041EB11214FEA104E4EEA014E10EB01
:100A70000E0041EB1141401841F100014FEAD00056
:100A800040EA41704FEAD10110EB80054FEA810442
:100A900044EA907444EB01046D1944EB0404521BC6
:100AA000A3414FF0000348BF0A3200D530BD401CBF
:100AB00041F1000130BD2DE9F0470D4699469246BF
:100AC000044600F124080168880604D5E06921F095
:100AD0001001216000E00120A84201DD471B00E079
:100AE0000027A1697A1902EB0900081AA061207891
:100AF000C00602D42046FFF792FC002608E0D4E9A5
:100B000001211AF806009047206A401C761C2062DA
:100B10004E45F4DB2078C0060AD52046FFF77FFC5F
:100B200006E0D4E9012130209047206A401C206271
:100B3000381EA7F10107F4DC07E0D4E9012118F819
:100B400005009047206A401C2062281EA5F101057F
:100B5000F3DC2046FFF779FC2078000602D502205E
:100B6000BDE8F0870120FBE770472DE9FF4F0C46F9
:100B70001E464FF0FF378BB0D2E90001DDF86080F0
:100B80000A908A46C1F30A5505B93D460021084638
:100B90004FF00000BAF1000F00F4400005DA00EB5E
:100BA00080004FF4400101EA50004FEA9059B9F13A
:100BB000010F00DDB9460A9850EA4A000ED044F60B
:100BC0001050A5F2FF3545432F14B8F1000F1ED089
:100BD0007542291E1EDDC9F100021CE0B8F1010FAB
:100BE0004FF0000001D0302103E0F24305E0215432
:100BF000401CB042FBDB30460022002121540B99FF
:100C0000C1F80880C1E900200FB0BDE8F08FBD1B1E
:100C10006D1CDEE74A4600DA694206A800F0F0FBE8
:100C200006AB93E8070003AB83E8070050460A9938
:100C300000F0ADFC8DE80700A0F500501F380090D3
:100C40000398002D0ADD42F21F014A4608440023A2
:100C500003A90390684600F016FF09E0A0F50050D4
:100C60004A461F38002303A90390684600F020FF7E
:100C70008DE807000004000C03D04FF0FF3041085E
:100C800000E01046B8F1000F03D000220092154694
:100C90001EE0751E05D4FFF7C9FE303262556D1E89
:100CA000F9D5B3460122084302D000227F1C04E09C
:100CB0002078302801D100227F1E002A099784D095
:100CC0001DE0112D07DAFFF7B1FE303262556D1CC1
:100CD00050EA0102F5D1084302D00098C8B10EE0F5
:100CE0000021681E05E0235C625C63542254401EB0
:100CF000491C8142F7DBAB46A81B401E099000202F
:100D000004F80B000B98099AC0F80880C0E9002B82
:100D10007AE711264FF0000857E72DE9F04F884693
:100D20000446D21D22F0070191B0D1E90001CDE9BE
:100D30000A0103F088F802460B98C00F01D02D205D
:100D400007E02068810701D52B2002E0202101EA7D
:100D5000C000032A099001D0072A05DB034641465B
:100D6000204600F00DFB0BE12078800601D5E069FC
:100D700000E00620B8F1650F814606D0B8F1660F95
:100D800018D0B8F1670F70D131E00020B9F1110F20
:100D9000009001DB112301E009F101030AAA01A976
:100DA0000CA8FFF7E2FEDDE90C70002609F1010551
:100DB000834647E001204B4600904FF000470AAAC7
:100DC00001A90CA8FFF7D1FEDDE90DB00C995D4635
:100DD000002610B909F101000D18B9EB050003D484
:100DE000C0F1FF3609F10105A5EB09002BE0B9F1CF
:100DF000010F01DA4FF001090020B9F1110F009045
:100E0000484601DD112300E003460AAA01A90CA807
:100E1000FFF7ABFEDDE90C704D46002683462078D7
:100E200000070AD4AB4500DA5D4601A8012D04DDB8
:100E3000411911F8011C302907D04F4502DA17F18A
:100E4000040F04DA012082460FE06D1EEEE7002F4A
:100E500002DCED1B3E4403E0781CA84200DD7D1C53
:100E6000B81B00F1010A4FF000472078000703D4B7
:100E7000AA4501DB4FF0FF3A0021B7F1004F0DF119
:100E800043088DF8431024D002202B23002F01DAD1
:100E90007F422D230A21021EA0F1010000DC5FB178
:100EA00097FBF1FC97FBF1F201FB1C7C17460CF160
:100EB000300C08F801CDEEE7A8F10100037021889D
:100EC000090501D5452100E06521A0F1010800F8E0
:100ED000011C09980FA9A1EB0807FF1D00B1012013
:100EE000411901EBEA70A1693844081A401EA0615B
:100EF0002078C00602D42046FFF791FA099828B15D
:100F0000D4E901219047206A401C20622078C00665
:100F100022D52046FFF783FA1EE0002E04DBB345FE
:100F200002DD01A8805D00E03020D4E90121904776
:100F3000206A401C2062761CAAF101005FEA000AC8
:100F40000AD100F019FAC0680168405CD4E90121B7
:100F50009047206A401C2062281EA5F10105DCDCB8
:100F600007E0D4E9012118F8010B9047206A401CE2
:100F70002062381EA7F10107F3DC2046FFF765FA6F
:100F8000032011B041E600002DE9F04F04460D4664
:100F9000D21D22F0070089B0D0E9009748463946B3
:100FA00002F051FF0246F80F01D02D2307E0206820
:100FB000810701D52B2302E0202101EAC0038DF82F
:100FC00020300BB1012000E00020032A824601D02E
:100FD000072A04DB2946204600F0D2F93FE12078B9
:100FE000800601D40D2500E0E569C7F30A560D2DF2
:100FF00049DA00214FEA175B08464FF00000002F46
:1010000000F4400007DA00EB80004FF4400100EBF1
:10101000D07001EA60008115012901DD4FF0FF3138
:1010200000224FEA850CBCF1180F06D31346ACF131
:1010300018004FF08052C24003E04FF4801323FAAF
:101040000CF30CF10C0CBCF1200F04D3ACF1200C10
:1010500009FA0CF001E007FA0CF000294FF0004803
:1010600001DD18B90FE00ED140450CD319EB020990
:101070005F4121B9404502D19F4329EA0209BBEBF8
:10108000175F00D0761C2088000502D57B48784485
:1010900002E07A487844193808AA302302F80A3066
:1010A000037C0AF10101002E0AF1020A53546A4638
:1010B00002DC4FF0300101E04FF031014FF0010848
:1010C0008DF8001002D0A6F2FF3603E059EA47017E
:1010D00000D06B4E002D02DC2178090704D54FF0BB
:1010E00002082E218DF80110C44600210BE0C7F341
:1010F00003433F01C35C491C6D1E02F808300529FB
:1011000008F1010801DA002DF1DC00210CE000EB10
:101110001973491C1B786D1E082902F808304FEA24
:10112000091908F1010801DA002DF0DC21688B06AD
:1011300002D516E0A8F10108E04505DD02EB080341
:1011400013F8013C302BF5D0B8F1000F09DD02EBAC
:10115000080313F8013C2E2B03D1090701D4A8F191
:101160000108002D05DD3E2102F808106D1E08F172
:101170000108407C002E02F8080008F1010804DA9A
:101180002D20764202F8080002E02B2002F8080029
:101190000A214FF47A70864208F101080BDB96FBB6
:1011A000F0F3303302F8083096FBF0F308F1010851
:1011B00000FB136601E0642E0CDB642096FBF0F369
:1011C000303302F8083096FBF0F308F1010800FB19
:1011D000136601E00A2E06DB96FBF1F0303002F8D0
:1011E000080008F1010896FBF1F001FB10603030B7
:1011F00002F80800A16908F1010808EB050202EBFA
:101200000A00081AA0612078C00602D42046FFF721
:1012100006F9216A08AE01EB0A00206204E0D4E975
:10122000012116F8010B9047BAF1010AF7D2207894
:10123000C00602D52046FFF7F2F86E4609E016F820
:10124000010B3E280FD0D4E901219047206A401CB1
:101250002062B8F10108F2D22046FFF7F6F809B093
:101260000320BDE8F08F206A2844206203E0D4E91F
:101270000121302090476D1EEBD3F8E76A4B000048
:1012800002FCFFFF10B5436913B1AFF3008001E02A
:10129000FFF7FEF8012010BD127800F124010A705A
:1012A00000224A700122EDE711684FF0FF32E9E7B2
:1012B00010B5436913B1AFF3008001E0FFF780F987
:1012C000012010BD128800F1240182840022C28412
:1012D0000122EDE711684FF0FF32E9E770B51646DD
:1012E0000C46054600F040F8036893F80101012818
:1012F00006D0FF2C0FD8185D68B101202C7070BD8E
:10130000D3F807013246214603F207130344284667
:10131000BDE8704018474FF0FF3070BD754600F0D3
:10132000EBF8AE4605006946534620F007008546B7
:1013300018B020B5FEF7D8FFBDE820404FF00006FA
:101340004FF000074FF000084FF0000B21F00701AD
:10135000AC46ACE8C009ACE8C009ACE8C009ACE8F0
:10136000C0098D467047000010B500F005F8001D5B
:1013700010BD00BFF5420000004870475820002013
:101380002DE9F0411F46044603260168072A01F4AF
:10139000006004DB08B116A505E016A503E008B15E
:1013A00015A500E015A521F010002060A069C01E61
:1013B000A0610FB1401EA0612046FFF730F84FB189
:1013C000D4E9012138469047206A401C2062C01CA5
:1013D000206206E0206AFAE7D4E9012115F8010B42
:1013E0009047761EF8D22046FFF72FF8BDE8F0812F
:1013F0004E414E006E616E00494E4600696E6600B9
:101400002DE9F047814616468AB0354878440DC824
:101410008DE80D0032487844801C03AC0DC884E888
:101420000D0041F69B300844372190FBF1F290FB10
:10143000F1F5A5F1800501FB12041B3C02D56442C5
:10144000012000E00020DFF898A080460027FA4441
:10145000AAF1BE0A0EE0E0070AD03246684607EB62
:10146000470101230AEB810100F022FB8DE8070010
:1014700064107F1C002CEED1194F7F44AE3F19E061
:10148000E80715D007EB04100DF1180A90E80E00DC
:101490008AE80E00C068F04201D1981908903246DF
:1014A000012306A903A800F003FB03AB83E80700B0
:1014B0006D10641C002DE3D14FF0010332466946E4
:1014C000B8F1000F03A802D000F0DDFA01E000F04F
:1014D000EFFAC9E90001C9F808200AB0BDE8F087B1
:1014E0007C48000010B50446AFF300802046BDE8FC
:1014F0001040FEF798BE00000048704738200020DA
:101500004FF0013C50F8042B51F8043B9A4221D192
:10151000A2EB0C03934313EACC1317D150F8042B1E
:1015200051F8043B9A4215D1A2EB0C03934313EA02
:10153000CC130BD150F8042B51F8043B9A4209D13B
:10154000A2EB0C03934313EACC13DBD04FF0000063
:10155000704700BFD01A01BAB1FA81F101F0180149
:1015600022FA01F0CB40C1F12001DBB2C0B2C01AB7
:101570002CFA01F3D11A914311EAC311E6D1704755
:1015800001491820ABBEFEE72600020070475FEA63
:10159000400C08BF91F0000F4FEA8C234FEAC122A4
:1015A00043EA51514FEA1C5018BF00F5F0404FEA92
:1015B000300018BF41F000415FEA6C5C00F0298008
:1015C000BCF1FF3F08BF40F080407047130C06BFDE
:1015D00012044FF0100C4FF0000C130E04BF120257
:1015E0000CF1080C130F04BF12010CF1040C930F43
:1015F00004BF92000CF1020CD30F04BF52000CF197
:10160000010C11464FF00002A0F11F00A0EB0C00EE
:10161000704711F0004F08BF704731F000413FF4B0
:10162000D5AF0B0C06BF09044FF0100C4FF0000CA7
:101630000B0E04BF09020CF1080C0B0F04BF0901CB
:101640000CF1040C8B0F04BF89000CF1020CCB0FC2
:1016500004BF49000CF1010CCCF12003A0EB0C00FD
:1016600022FA03F302FA0CF241EA030100F101004D
:10167000704720F07F4C80EA030023F07F47ACEBFB
:10168000070303F57C5300F0004003F1FF032DE94D
:1016900080494FEA154B09B44FEA144325EA0B4E33
:1016A00024EA03480FF2042606EB132749083E7884
:1016B0005FEA320203FB0667C7F5000707FB06F681
:1016C0004FEA54374FEAD64606F1020607FB066C8E
:1016D000CCF1005C4FEA1C472CEA074C07FB06F4F0
:1016E0000CFB06F504EB15464FEA961634BF0020B6
:1016F0004FF000404FEAD13706FB07FC4FEA1C4C85
:101700000CFB0BF7D21B03FB0CF761EB07010CFB87
:101710000EF7B0EB074072EB17420CFB08F734BF33
:10172000A2EB0742B2EB074261EB17414FEA0C44D0
:101730004FEA910706FB07FC4FEA1C4C0CFB0BF72A
:10174000B0EBC74072EB573203FB0CF734BFA2EB90
:10175000C742B2EBC74261EB57310CFB0EF7B0EB5F
:10176000C70072EB57720CFB08F734BFA2EBC7023D
:10177000B2EBC70261EB5771039F4FEA816141EA07
:10178000921104EBCC044FEAD1374FEA826206FB98
:1017900007FC42EA90124FEA80604FEA1C4C0CFBB7
:1017A0000BF7D21B03FB0CF761EB07010CFB0EF7E9
:1017B000B0EB074072EB17420CFB08F734BFA2EB0B
:1017C0000742B2EB074261EB17414FEA8C554FEAF3
:1017D000910704EB9C2406FB07FC4FEA1C4C0CFB16
:1017E0000BF7B0EBC74072EB573203FB0CF734BF7B
:1017F000A2EBC742B2EBC74261EB57310CFB0EF7CD
:10180000B0EBC70072EB57720CFB08F734BFA2EBCA
:10181000C702B2EBC70261EB577115EB4C254FEADB
:10182000816141EA92114FEA82624FEAD13742EA7E
:10183000901206FB07FC44F100044FEA80604FEA77
:101840001C4C0CFB0BF7D21B03FB0CF761EB0701E5
:101850000CFB0EF7B0EB074072EB17420CFB08F7DE
:1018600034BFA2EB0742B2EB074261EB174115EB25
:101870001C154FEA813141EA92414FEA823242EA35
:1018800090424FEA80304FEA0C7644F1000448EA77
:1018900003434EEA0B484FF0000EB2EB080C71EB1D
:1018A000030724BF624639464EEB0E0E4FF0000B85
:1018B0000018524149414BEB0B0BB2EB080C71EB9A
:1018C00003077BF1000B24BF624639464EEB0E0E38
:1018D0004FF0000B0018524149414BEB0B0BB2EBA0
:1018E000080C71EB03077BF1000B24BF62463946FD
:1018F0004EEB0E0E51EA020718BF46F0010616EB3A
:101900000E7655F1000254F1000103D5BDE88901BE
:10191000BDE80088BDE88901BDE80048B61952411C
:1019200041EB0101A3F10103704780807F7E7D7C44
:101930007B7A7978777676757473727171706F6E61
:101940006E6D6C6C6B6A6A6968686766666564640C
:10195000636362616160605F5F5E5E5D5D5C5C5B96
:101960005B5A5A5959585857575656555555545405
:10197000535352525251515050504F4F4F4E4E4D63
:101980004D4D4C4C4C4B4B4B4A4A4A4949494848AF
:1019900048474747474646464545454444444443EF
:1019A00043434342424242414141002B9C4630D492
:1019B00077002BD01CB54FEA370703B44FF0100067
:1019C0004FF01001BAF1000F06D0BCF1000FDCBFE0
:1019D00040F0080040F008014FF000000FBCBDE8E7
:1019E00010400BF1010BBBF1010F08BF5FEA1707B5
:1019F00022BF12F1010211F101014FF0004143F148
:101A0000000300F0004043EA00007047F9D3570894
:101A1000D0E746EA064613F1400F4FEA16461FDDAF
:101A200013F1200FDFBF16430A46002120335B422B
:101A3000BED0C3F1200746EA064602FA07F74FEA8E
:101A4000164646EA0706C3F1200722FA03F201FA16
:101A500007F721FA03F14FF0000342EA0702A7E774
:101A600046EA020646EA06464FEA164646EA0106F6
:101A7000BCBF46EA0646360C4FF000034FF00002AA
:101A80004FF0000194E72DE9804C9A46934670B4DC
:101A900091E8380007C831EA400C48BF34EA430CEB
:101AA00003D5FFF7E6FDFFF780FFF0BCBDE8008C33
:101AB0002DE9804C9A46934670B491E8380007C8E7
:101AC00010F0804F08BF13F0804F03D100F005F8ED
:101AD000FFF76BFFF0BCBDE8008C20F07F4780EA89
:101AE000030023F07F4C07EB0C03A3F57C5300F0BD
:101AF0000040A3F1FE0392F0000F00F0B38095F0D8
:101B0000000F00F077802DE901494FEA11404FEABC
:101B1000144621EA004800FB06FC24EA064708FBBD
:101B200006F607FB08F800FB07F718EB06484CEB36
:101B3000164C4FEA124B18EB07484FEA15464CEB90
:101B4000174022EA0B4E0BFB06FC25EA06470EFB6C
:101B500006F607FB0EFE0BFB07F71EEB064E4CEBE3
:101B6000164C4FF000061EEB074E4CEB174B18EBD4
:101B70000B0840F1000018EB0E0B58EB000840F189
:101B800000008F1A4FF000013CBFC943661B14BF11
:101B9000B5EB040C00213CBFC943F61B4FEA1744C8
:101BA0004EEA8E0E27EA04454FEA1C4704FB076203
:101BB0002CEA074C05FB07F70CFB05F604FB0CFCB5
:101BC00016EB074642EB174216EB0C4642EB1C4263
:101BD0001BEB060658EB0202414146EA9E0601D580
:101BE000BDE80189B619524141EB0101A3F101039E
:101BF000BDE801894FEA14454FEA114724EA05463A
:101C000021EA074C05FB07F406FB07F70CFB06F17E
:101C100005FB0CFC11EB074144EB17444FEA12475C
:101C200011EB0C4144EB1C4422EA074C05FB07F284
:101C300006FB07F70CFB06F605FB0CFC16EB07464C
:101C400042EB174216EB0C4642EB1C456A1854F166
:101C5000000148BF7047B619524141EB0101A3F1A1
:101C60000103704795F0000F37D04FEA11424FEA59
:101C7000144721EA024624EA074C02FB07F106FB5F
:101C800007F70CFB06F402FB0CFC14EB074441EBDA
:101C900017414FEA154714EB0C4441EB1C4125EA70
:101CA000074C02FB07F506FB07F70CFB06F602FBE9
:101CB0000CFC16EB074645EB174516EB0C4645EBBF
:101CC0001C42121951F1000148BF7047B619524128
:101CD00041EB0101A3F1010370474FEA14454FEABC
:101CE000114724EA054621EA074C05FB07F106FBEC
:101CF00007F70CFB06F24FF0000605FB0CFC12EB9D
:101D0000074241EB174112EB0C4251EB1C4148BF1B
:101D10007047921841EB0101A3F1010370470000E5
:101D20001FB5002002901020009001200190032098
:101D3000054C03906946204600F000F9002210216E
:101D4000204600F0F0F91FBD0008014001210148C4
:101D500000F0E4B90008014000B585B00020019012
:101D600003900948816941F00401816180696946F5
:101D700000F004000490012000900220029003482B
:101D800000F0DCF805B000BD001002400008014082
:101D90000C4C4FF400550C4EFFF7D8FF6060012843
:101DA0000DD00AA20221002001F0E2FD0022294606
:101DB000304600F0B8F9012002F0A4F8ECE705A2E3
:101DC000F0E7000010000020001001406E6F6E650B
:101DD0000000000070656F706C650000FEE701F0A8
:101DE000E9FD012002F08EF8F9E7704772B6FEE7D0
:101DF000124D134C01F09AFB208001F0BFFB608074
:101E0000208898B100210FA2084601F0B1FD0122FF
:101E10001021284600F087F963880CA200210420D5
:101E200001F0A6FD012002F06DF8E3E7002109A210
:101E3000084601F09DFD0022EAE70000000801408D
:101E4000100000207761726E696E67006D71323A22
:101E5000256466006E6F726D616C000010B590F8BD
:101E600021100022022905D00421816380F820205E
:101E7000012010BD01680B6823F00E030B600168A0
:101E80000B6823F001030B6090F84030C46B012114
:101E900001FA03F3636080F8211080F820201046D7
:101EA00010BD000010B590F821100024022903D0C5
:101EB0000421816301243DE001680A6822F00E02DA
:101EC0000A6001680A6822F001020A601A4A016881
:101ED000914201D1012121E0174A1432914201D1EE
:101EE00010211BE0144A2832914201D1891515E0D6
:101EF000114A3C32914201D189140FE00E4A50320E
:101F0000914202D14FF4803108E00B4A6432914291
:101F100002D14FF4801101E04FF08071064A083A77
:101F20005160012180F82110002180F82010416BC0
:101F300001B18847204610BD080002402DE9F84F46
:101F4000DFF8B8910024A9F1040B23460F2709F10B
:101F5000040AABF1040EC9E00125A5402A40AA42BB
:101F60007DD1674ED1F804C0ACEB0608B44532D041
:101F700014DCBCF1030F3AD009DCBCF1000F2AD00D
:101F8000BCF1010F1CD0BCF1020F31D11DE0BCF13E
:101F9000110F17D0BCF1120F2AD119E0B8F5881F24
:101FA00019D006DCB8F5803F15D0B8F5801F1FD1D9
:101FB00011E0B8F5001F0ED0B8F5041F18D10AE0E3
:101FC000CB6815E0CB681B1D12E0CB6808330FE02F
:101FD000CB680C330CE08B682BB1012B4FF008035E
:101FE00003D0456104E0042302E0056100E0002322
:101FF000FF2A01D8064601E000F104064FEA8405F5
:1020000001D9A5F12005D6F8008007FA05FC28EAD9
:102010000C0803FA05F548EA0508C6F800804D6883
:10202000ED0062D5374DAE6946F00106AE61AD698F
:1020300024F0030605F001050095334D06EB050C71
:10204000DCF80850A607360F07FA06F825EA080557
:10205000DFF8B880404503D14FF0000817E044E0B6
:10206000DFF8AC80404502D14FF001080FE0DFF807
:10207000A480404502D14FF0020808E0DFF89880C4
:10208000404502D14FF0030801E04FF0040808FA80
:1020900006F848EA0508CCF808804D68D9F80060D1
:1020A000ED024D4601D5164300E096432E604D6883
:1020B000DAF80060AD02554601D5164300E09643BC
:1020C0002E604D68DBF80060AD035D4601D5164318
:1020D00000E096432E604D68DEF80060ED03754623
:1020E00001D5164300E096432E60641C0D682A4615
:1020F000E5407FF431AFBDE8F88F000008040140EF
:1021000000001110001002400000014000080140D2
:10211000000C01400010014000140140806808409C
:1021200000D0012070470AB1016170470904FBE744
:1021300001488068704700000000002070B504006E
:1021400025D094F83D00002520B984F83C50204665
:1021500000F04EF9242084F83D002068016821F049
:10216000010101602068016841F4004101602068BC
:10217000016821F40041016000F0E2FA4D4A616813
:10218000914201D84C4900E04C49884201D20120DB
:1021900070BD4B492368B0FBF1F15E6826F03F0645
:1021A0000E435E606368934206D94FF496735943B9
:1021B0004FF47A73B1FBF3F12368491C1E6A26F0D1
:1021C0003F06314319626168914210D84900401EB0
:1021D000B0FBF1F2521CC2F30B02042A01D204201C
:1021E00022E0B0FBF1F0401CC0F30B001CE0A26841
:1021F000F2B301EBC10303EB0116431EB3FBF6F38D
:102200005B1C43F480431B0549D092B301EBC10230
:1022100002EB0111401EB0FBF1F0401CC0F30B00BB
:1022200040F4804040F400402168CA694CF6FF73D6
:102230009A431043C861D4E907100143206802683B
:1022400022F0C00211430160D4E903010143206878
:10225000826848F2FF339A4311438160D4E9050153
:1022600008432168CA6822F0FF021043C86001E0F9
:102270000EE016E02068016841F00101016025646C
:10228000202084F83D00256384F83E50002070BD76
:1022900001EB4106431EB3FBF6F35B1CB3E70120E1
:1022A000C2E701EB4101401EB0FBF1F0401CC0F35E
:1022B0000B00B7E7A086010080841E0000093D00E6
:1022C00040420F002DE9F84F1F4690468A460446CB
:1022D000DDF82890FFF72CFF054694F83D002028F4
:1022E0007FD11923012240492046009501F04CF886
:1022F000002876D194F83C00012872D0012084F89F
:102300003C0020680168C90703D1016841F0010160
:1023100001602068016821F400610160212084F8D7
:102320003D00102084F83E0000262664C4F8248076
:102330006785608D20852D48E0622B464A465146D0
:10234000204600F0A7FF90B920684169806900909D
:1023500036E02A464946204601F0BCF850B1206CD0
:10236000042804D12068016841F400710160012053
:10237000BDE8F88F606A216800780861606A401CD7
:102380006062618D491E6185218D491E89B221855A
:1023900022685369DB435B070BD451B100781061AD
:1023A000606A401C6062608D401E6085208D401E0A
:1023B00020852A464946204600F0BAFF0028CED1A3
:1023C000208D0028C5D154F83D0B016841F40071FF
:1023D0000160202004F81E09E67766770020C7E731
:1023E000FFE70220C4E70000020010000000FFFF2A
:1023F00010B586B00021009101910291039100680F
:102400000F4988421AD10F4CA06940F00800A06122
:10241000A069694600F008000490C02000901220D6
:102420000190032003900848FFF788FDE06940F41D
:102430000010E061E06900F40010049006B010BDE7
:102440000054004000100240000C01400248816826
:10245000027811448160704700000020074810B5E1
:10246000016841F010010160032000F0A1F80F2085
:1024700000F006F800F04AF8002010BD00200240ED
:1024800030B505461C4887B0816941F4006181611F
:10249000806906A900F40060009001A800F030F9FE
:1024A00000F05EF91549164AB0FBF1F11548491ED6
:1024B0000260416040F2E7320021C0E903218160FF
:1024C000816100F049FB040012D10E4800F090FB3E
:1024D00004000DD1192000F03DF8102D07D2002284
:1024E0002946192000F044F80748056000E001245F
:1024F00007B0204630BD00000010024040420F00EF
:10250000002C0140D4010020040000200F4808B531
:10251000816941F001018161816901F0010100914E
:10252000C16941F08051C161C069002200F0805052
:1025300000900F21901E00F01BF80548416821F023
:10254000E06141F00071416008BD000000100240F0
:1025500000000140002809DB00F01F02012191402A
:102560004009800000F1E020C0F800117047000031
:10257000F0B40E4B1B680C46C3F30223C3F10705EE
:10258000042D00D90425191D072901D2002300E0DC
:10259000DB1E012606FA05F1491E214099409E40A6
:1025A000761E16403143F0BC01F061BC0CED00E03A
:1025B000064900F0070208684FF6FF03184040EA9A
:1025C0000220034A10430860704700000CED00E051
:1025D0000000FA052DE9F0470F46050061D0434E93
:1025E000306800F00700B84209D2306820F00700D8
:1025F00038433060306800F00700B84251D1286895
:102600003B4C810712D5400703D5606840F4E06079
:1026100060602878000703D5606840F4605060600F
:102620006068A96820F0F000084360602878C0075F
:1026300028D06868012810D02168022810D08907A6
:1026400000292EDA616821F0030101436160FFF780
:102650006FFD804641F288390DE021688903EFE77C
:102660008901EDE7FFF764FDA0EB0801494502D9B8
:102670000320BDE8F0876068696800F00C00B0EBEB
:10268000810FEFD1306800F00700B8420BD93068F5
:1026900020F0070038433060306800F00700B8428F
:1026A00001D00120E5E72878400705D56068E96892
:1026B00020F4E060084360602878000706D5606871
:1026C000296920F4605040EAC100606000F058F8C9
:1026D0006168084AC1F30311515CC84006490860AB
:1026E00006480068FFF7CCFE0020C2E70020024049
:1026F00000100240AE5600080C000020040000202C
:102700000F2202600C4A536803F0030343605368CE
:1027100003F0F0038360536803F4E063C36052681E
:102720004FF4E06303EAD20202610448006800F05B
:1027300007000860704700000010024000200240BF
:102740000448054900684968044AC1F30221515C04
:10275000C84070470C00002000100240BE56000820
:102760000448054900684968044AC1F3C221515C24
:10277000C84070470C00002000100240BE56000800
:102780000E4A51680E4801F00C03042B11D0082B9F
:102790000FD10C48C1F38343C903C05C0AD551680B
:1027A000084AC1F34041921E515C054A5043B0FBB8
:1027B000F1F07047044948437047000000100240A0
:1027C00000127A009E56000800093D002DE9F84FDE
:1027D000040070D02078C04DC00749D06868C0F3AD
:1027E0008100012807D06868C0F38100022809D160
:1027F0006868C00306D52868800339D5606800285A
:10280000E7D035E06068B0F5803F0BD010B1B0F58F
:10281000A02F11D0286820F480302860286820F488
:10282000802002E0286840F480302860606890B121
:10283000FFF77EFC06460AE0286840F48020286006
:10284000F0E700BFFFF774FC801B642873D828688A
:102850008003F7D50CE0FFF76BFC064605E000BFF0
:10286000FFF766FC801B6428F0D828688003F7D443
:1028700020789A4E80074FF001094FF0000839D5B3
:10288000686810F00C0F07D06868C0F38100022858
:1028900009D16868C00306D42868800714D5206968
:1028A000012808D110E02069B0B1C6F80090FFF708
:1028B0003FFC074605E00AE1FFF73AFCC01B02288F
:1028C000C4D828688007F7D52868616920F0F80027
:1028D00040EAC10028600DE0C6F80080FFF728FC40
:1028E000074604E0FFF724FCC01B022823D8286811
:1028F0008007F7D4207800072CD57948A169D9B191
:10290000C0F80090FFF714FC074604E0FFF710FC46
:10291000C01B02280FD8686A8007F7D571484FF4AA
:10292000FA510068B0FBF1F0009000BF0098411E22
:102930000091FAD20EE080E0C0F80080FFF7F8FBCB
:10294000074604E0FFF7F4FBC01B022875D8686A4D
:102950008007F7D42078400760D5E8690027C000D9
:1029600008D4E86940F08050E861E869012700F088
:10297000805000905C480168C90513D40168834603
:1029800041F480710160FFF7D3FB824606E000BF8F
:10299000FFF7CEFBA0EB0A0064284ED8DBF800005E
:1029A000C005F5D5E06801280AD008B1052813D084
:1029B000286A20F001002862286A20F0040002E062
:1029C000286A40F001002862E06841F2883B98B133
:1029D000FFF7AEFB82460BE0286A40F00400286255
:1029E000EEE700BFFFF7A4FBA0EB0A0159455AD858
:1029F000286A8007F6D50CE0FFF79AFB824605E0CF
:102A0000FFF796FBA0EB0A0159454CD8286A8007CE
:102A1000F6D41FB1E86920F08050E861E06988B31E
:102A20006968C1F38101022944D00228C6F8608098
:102A300004D0FFF77DFB044638E034E0FFF778FB75
:102A4000074604E0FFF774FBC01B02282BD8286858
:102A50008001F7D4206AB0F5803F05D16868A1688D
:102A600020F4003008436860D4E90801084369682D
:102A700021F4741108436860C6F86090FFF758FBB2
:102A8000044606E025E000BFFFF752FB001B0228CA
:102A900009D828688001F7D51BE000BFFFF748FB85
:102AA000001B022802D90320BDE8F88F28688001A6
:102AB000F4D40EE00128F7D06868226A00F480316F
:102AC000914204D1616A00F47010884201D0012063
:102AD000EAE70020E8E70000001002400000424260
:102AE000800442420C000020007000407047704794
:102AF00070B590F83C20012A26D0012480F83C4093
:102B0000022280F83D2003685A689D6822F0700612
:102B10000A6832435A600D4B02689A4208D0B2F1FB
:102B2000804F05D00A4B9A4202D00A4B9A4204D1F8
:102B3000496825F080031943916080F83D400021E9
:102B400080F83C10084670BD022070BD002C01408A
:102B5000000400400008004010B5040003D094F8C1
:102B60003D0010B107E0012010BD002084F83C00BA
:102B7000204600F01FF8022084F83D00211D206847
:102B800000F0E6FF012084F8460084F83E0084F857
:102B90003F0084F8400084F8410084F8420084F843
:102BA000430084F8440084F8450084F83D00002088
:102BB00010BD000008B501680B48B1F1804F0BD083
:102BC0000A4A914207D1C16941F00201C161C0695D
:102BD00000F00200009008BDC16941F00101C1612F
:102BE000C06900F00100F5E7001002400004004059
:102BF00090F83D10012901D001207047022180F892
:102C00003D100168CA6842F00102CA6000680B49C1
:102C1000884208D0B0F1804F05D00949884202D0DF
:102C20000849884204D1816801F00701062903D0D0
:102C3000016841F00101016000207047002C014053
:102C4000000400400008004070B5044690F83C00C5
:102C50000025012817D0012684F83C60022084F862
:102C60003D002068826822F0770222F47F42826071
:102C70000868502838D00DDC20284FD005DC90B3F0
:102C8000102811D14AE0022070BD302846D04028DB
:102C90000AD13BE060282FD070280DD0B0F5805FBE
:102CA00003D0B0F5005F12D0012584F83D6000200C
:102CB00084F83C00284670BDCB68D1E9012120682A
:102CC00000F07CFF2068816841F0770109E0CB6863
:102CD000D1E90121206800F071FF2068816841F48A
:102CE00080418160E1E719E0CA684968206800F026
:102CF00077FF5021206806E0CA684968206800F024
:102D000080FF6021206800F063FFCEE7CA68496851
:102D1000206800F065FF40212068F4E72268014642
:102D20001046F0E7704770B50446006801694FF03F
:102D30000005C943890715D4C168C943890711D45F
:102D4000E91E016101202077206880698007204604
:102D500002D0FFF7E7FF04E000F098F8204600F00B
:102D600096F8257720680169C943490717D4C168D7
:102D7000C943490713D46FF0040101610220207791
:102D80002068806910F4407F204602D0FFF7CAFF18
:102D900004E000F07BF8204600F079F82577206801
:102DA0000169C943090716D4C168C943090712D488
:102DB0006FF008010161042020772068C069800756
:102DC000204602D0FFF7AEFF04E000F05FF8204697
:102DD00000F05DF8257720680169C943C90617D45A
:102DE000C168C943C90613D46FF0100101610820FE
:102DF00020772068C06910F4407F204602D0FFF79A
:102E000091FF04E000F042F8204600F040F82577FA
:102E100020680169C943C90708D1C168C943C90706
:102E200004D1891E0161204600F032F82068016952
:102E3000C943090609D4C168C943090605D46FF01E
:102E4000800101612046FFF751FE20680169C943F6
:102E5000490609D4C168C943490605D46FF0400149
:102E60000161204600F01EF820680169C943890607
:102E70000BD4C168C943890607D46FF020010161F2
:102E80002046BDE87040FFF732BE70BD7047704706
:102E900000680349884201D1FFF7D8BA70470000A3
:102EA000002C01407047704770470000F8B501687A
:102EB00004460868CA684B6910F00F0F4FF0000510
:102EC00059D003F0010602F49077374365D0C1076B
:102ED00005D0D10503D5616C41F001016164410762
:102EE00005D5D90703D0616C41F002016164810707
:102EF00005D5D90703D0616C41F004016164010775
:102F000007D502F02001314303D0616C41F0080184
:102F10006164616C00293AD0800604D5900602D520
:102F2000204600F0AFFE20684069616CC0F380105D
:102F3000090700D460B3204600F07DFE2068406998
:102F4000400621D52068143050E8001F21F04001D0
:102F500040E80012002AF5D1E06BA8B16D49416349
:102F6000E06BFEF79FFF002811D0E06B416B01B0D2
:102F7000BDE8F040084783060FD593060DD52046DF
:102F8000BDE8F84000F07EBE2046FFF78DFFF8BD9B
:102F90002046FFF789FF6564F8BD266B2023012ECC
:102FA0007CD1C6067AD5D60678D5086848680090E0
:102FB00048694FF00206400640D5E16B086840685A
:102FC0000004000CE8D0A28D8242E5D9E085886932
:102FD00020282DD020680C3050E8001F21F480718B
:102FE00040E80012002AF5D12068143050E8001F94
:102FF00021F0010140E80012002AF5D120681430C8
:1030000050E8001F21F0400140E80012002AF5D1ED
:1030100084F84230256320680C3050E8001F21F00E
:10302000100140E80012002AF5D1E06BFEF716FF10
:103030006663A08DE18D401A81B22AE0A08DE18DFA
:10304000401A81B2E08D0028A6D00029A4D02268C1
:103050000C3252E8000F20F4907042E80007002F75
:10306000F5D12068143050E8002F22F0010240E82A
:103070000027002FF5D184F84230256320680C30FA
:1030800050E8002F22F0100240E80023002BF5D179
:1030900066632046FFF707FFF8BDFFE705062BD55F
:1030A000150629D594F841002128F5D1A068B0F57E
:1030B000805F01D12069B0B1206A411C2162216882
:1030C00000784860E08C401E0004000CE084E3D1EE
:1030D0002068C16821F08001C1602068C16841F0AA
:1030E0004001C160D8E7206A0088C0F3080048604A
:1030F000206A801C2062E5E74006CDD55006CBD57E
:10310000CA68204622F04002CA6084F8413000F0CC
:10311000A7F8C1E7273C000870B5040004D094F874
:103120004100002510B106E0012070BD84F8405038
:10313000204600F023F8242084F841002068C1686C
:1031400021F40051C160204600F0FEFD20680169B5
:1031500021F4904101612068416921F02A01416117
:103160002068C16841F40051C1606564202084F882
:10317000410084F842006563002070BD30B585B021
:103180000024009401940294039400681849884232
:103190002BD11848C16941F40031C161C16901F402
:1031A00000310491816941F0040181618069124D0F
:1031B00000F00400049004200090022001900320FD
:1031C000039069462846FEF7B9FE0820CDE90004C1
:1031D000694628460294FEF7B1FE0022052126200A
:1031E000FFF7C6F92620FFF7B5F905B030BD00009E
:1031F00000440040001002400008014090F84230B6
:10320000202B01D00220704721B11AB100230363A3
:1032100000F0F6BD012070470E4930B4884217D146
:103220000D4841880A040DD4037800225A2B08D097
:10323000C1F30E04094D491C89B22B554180C729A1
:1032400000D9428030BC012203490248FFF7D6BFB3
:1032500030BC70478C0100209C000020F01A002038
:103260007047FEE701684A69D24352050FD46FF4F4
:1032700080624A61002140F8301F2022427381732E
:10328000026942F0040202610173012070470020CC
:1032900070470000F8B50446C06A1E460D46174642
:1032A000082807D0012805D010F5803F02D0206BF8
:1032B000122804D12068016841F48071016013462E
:1032C00000224FF001112046009600F05DF840B159
:1032D00020680068C00502D54FF400702064032008
:1032E000F8BD2069B0F5804F0ED00620216800EAB5
:1032F000D51040F0F000086133463A460B492046AD
:1033000000F08AF878B902E005F0FE0000E0E8B2CB
:1033100021680861054933463A46891F204600F076
:103320007BF80028DCD00120F8BD00000800010077
:1033300070B516460D4604461EE02046FFF792FF84
:1033400008B1012070BD681C16D0FEF7F1FE801B8D
:10335000A84200D885B920684069C04340070BD512
:10336000002044F8300F20216173A073216941F0DF
:10337000200121612073E4E720684069C0434007D1
:10338000DBD4002070BD00002DE9F04798461746B9
:103390000D460446C1F30746DDF820902AE000BF41
:1033A000B8F1FF3F26D0FEF7C3FEA0EB090141456F
:1033B00002D8B8F1000F1DD12068012E16D0806907
:1033C00025EA00000004000C12D00020B84211D100
:1033D000002044F8300F20216173A073216941F06F
:1033E0002001216120730120BDE8F0874069E7E7F3
:1033F0000120EBE72068012E0AD0806925EA000051
:103400000004000C06D00020B842C9D00020EBE731
:103410004069F3E70120F7E72DE9F04798461646A3
:103420000D4604464FF000094FF0200AC1F307474C
:1034300023E020684069C043400515D42068016836
:1034400041F40071016021686FF480604861C4F844
:10345000309084F83DA084F83E90216C41F0040146
:10346000216484F83C9021E0701C06D0FEF760FED9
:10347000A0EB0800B04203D816B1012F1FD021E005
:103480002068012F15D0806925EA00000004000C97
:1034900018D000BF44F8309F84F80DA084F80E9037
:1034A000216941F02001216184F80C900120BDE8E0
:1034B000F087406925EA00000004000CEAD120688A
:1034C000406901E02068806925EA00000004000CE2
:1034D000AFD1ECE770B516460D4604461EE0204617
:1034E000FFF7C0FE08B1012070BD681C16D0FEF7C2
:1034F0001FFE801BA84200D885B920684069C043E0
:1035000000060BD5002044F8300F20216173A07312
:10351000216941F0200121612073E4E720684069BE
:10352000C0430006DBD4002070BD000010B50221AE
:103530000348FEF7F3FD08B1002010BD012010BDC7
:103540000008014000B585B00020019003900948B3
:10355000816941F0040181618069694600F00400DD
:10356000049002200090012002900348FEF7E6FC40
:1035700005B000BD001002400008014010B54FF436
:1035800000410448FEF7CAFD08B1002010BD01202B
:1035900010BD0000000C01401FB5002001900390F9
:1035A0004FF4004000900120029069460148FEF768
:1035B000C5FC1FBD000C014010B50B4A00210B4893
:1035C00000F0F6FC0A4C084A0021A06024320948A9
:1035D00000F0EEFC044AE06048320021064800F0AA
:1035E000E7FC206110BD0000C8560008DF1D000880
:1035F00010000020F11D0008911D00082DE9F04782
:1036000086B00024384800940194029403948169A0
:1036100041F010018161816901F01001049181691B
:1036200041F020018161816901F0200104918169EB
:1036300041F004018161816901F004010491816913
:1036400041F0080181618069DFF8A08000F0080086
:103650004FF400550490002229464046FEF763FDD2
:10366000DFF88C90002241F610614846FEF75BFDC2
:10367000012220214846FEF756FDDFF878A0AF1062
:10368000002239465046FEF74EFD009502260125E0
:103690000396CDE9015469464046FEF74FFCCDE95B
:1036A0000064694648460296FEF748FC41F63060E1
:1036B000CDE900050320CDE9024069464846FEF702
:1036C0003DFC00970396CDE9015469465046FEF74C
:1036D00035FCE8038DE8310069465046FEF72EFCC4
:1036E00006B0BDE8F0870000001002400010014065
:1036F00000080140000C01400D4810B50B49016065
:103700000C49416000214FF480428160C0E90312FE
:1037100041618161C1610162FEF710FD002803D0A3
:10372000BDE81040FEF762BB10BD00000054004031
:10373000A8000020A086010010B586B0002416481D
:10374000009401940294039404944FF080410594F2
:1037500001604721C0E9011444F61F61C0E9031468
:103760008461FFF7F9F908B1FEF740FB4FF4805090
:10377000009069460848FFF767FA08B1FEF736FB84
:10378000049404A904480594FFF7B2F9002801D075
:10379000FEF72CFB06B010BDFC00002010B586B073
:1037A000002417480094019402940394049413494C
:1037B000059401604721C0E9011444F61F61C0E986
:1037C00003148461FFF7C8F908B1FEF70FFB4FF44B
:1037D0008050009069460A48FFF736FA08B1FEF7B4
:1037E00005FB049404A906480594FFF781F9002815
:1037F00001D0FEF7FBFA06B010BD00000004004047
:10380000440100200C4810B50A4901604FF41651DC
:103810004160002181600C22C160C0E90412816115
:10382000C161FFF779FC002803D0BDE81040FEF726
:10383000DDBA10BD004400408C010020FEE7FEE729
:1038400070B5802817D2002915DB3F2913DCCB1770
:1038500001EB5375C5F3C70325F007050124094E95
:10386000491B8C4006EBC000012A05D0C15C022A2E
:1038700005D0A143C15470BDC15C2143FAE761404A
:10388000F8E70000381C002010B50021AE2000F041
:1038900025FB0021202000F021FB0021102000F05A
:1038A0001DFB0021B02000F019FB0021C82000F012
:1038B00015FB0021084600F011FB0021102000F04C
:1038C0000DFB0021402000F009FB0021812000F0C9
:1038D00005FB0021FF2000F001FB0021A12000F0EA
:1038E000FDFA0021A62000F0F9FA0021A82000F03E
:1038F000F5FA00213F2000F0F1FA0021A42000F0A9
:10390000EDFA0021D32000F0E9FA0021084600F08A
:10391000E5FA0021D52000F0E1FA0021F02000F0C6
:10392000DDFA0021D92000F0D9FA0021222000F090
:10393000D5FA0021DA2000F0D1FA0021122000F09F
:10394000CDFA0021DB2000F0C9FA0021202000F090
:10395000C5FA00218D2000F0C1FA0021142000F0EA
:10396000BDFA0021BDE81040AF2000F0B7BA00005A
:103970000FB4042870B50C46054613D8142C11D882
:103980000A4E07AA0A4832600699FCF7BFFCC4F148
:103990001501074A0020C9B230605054214628461C
:1039A00000F072F870BC5DF814FB0000A400002069
:1039B000B81B002070B50B4E00242146002000F0FB
:1039C00013F8002506EBC5000121005D00F086FA22
:1039D0006D1CEDB2802DF5D3641CE4B2082CECD341
:1039E00070BD0000381C002010B50446B031C8B2CC
:1039F000002100F073FA102040EA1410002100F0BA
:103A00006DFA04F00F00BDE81040002100F066BA26
:103A10002DE9F04F01EB410100EB40004906800623
:103A2000040E203A4FEA1169D0B2164900EB40006B
:103A3000A046002501EB800B00261BF805704FFA0D
:103A400089FA380601D5012200E0002261B2504611
:103A5000FFF7F6FE7806641C070EE4B2A4EB08003C
:103A60000C2809D0761CF6B2082EEAD36D1CEDB2F4
:103A70000C2DE1D3BDE8F08F09F10100444600F0C0
:103A8000FF09F3E734570008F0B517460C46064621
:103A900000250CE021463046FFF7BAFF641CE4B273
:103AA000142C02D90024761CF6B26D1CEDB27A5D9E
:103AB000002AEFD1F0BD000010B5502080F311882E
:103AC000BFF34F8FBFF36F8F01F016FC18B104499D
:103AD0004FF080500860002080F3118810BD000076
:103AE00004ED00E030B58FB028216846FCF76DFC8E
:103AF00014210AA8FCF769FC01210804CDE9001093
:103B00000024029402250491CDE907504FF4E010FF
:103B100009906846FEF75AFE08B172B6FEE70F201C
:103B2000CDE90A054FF48060CDE90C4002210AA8D6
:103B30000E94FEF74FFD002801D072B6FEE70FB0DD
:103B400030BD70470148FFF7EEB80000D4010020F7
:103B5000F0B50268164B174C174D4FF0804798424E
:103B600005D0B84203D0A04201D0A84203D122F030
:103B700070064A683243984205D0B84203D0A0424A
:103B800001D0A84203D122F44074CA6822434C6990
:103B900022F08002224302608A68C2620A6882625E
:103BA000984201D10969016301214161F0BD000022
:103BB000002C0140000400400008004010B584685B
:103BC00042EA032224F47F440A432243826010BD68
:103BD000826822F070020A4342F007018160704758
:103BE00010B5036A046A24F001040462846924F0B5
:103BF000F00444EA021423F00A020A4384610262D8
:103C000010BD10B5036A046A24F0100404628469CC
:103C100023F0A00324F4704444EA023243EA011181
:103C20008261016210BD10B5406A0021C185C18466
:103C3000FFF73AF910BD01680C3151E8002F22F46A
:103C4000907241E80023002BF5D10168143151E84E
:103C5000002F22F0010241E80023002BF5D1016B77
:103C6000012909D101680C3151E8002F22F010021E
:103C700041E80023002BF5D1202180F842100021DB
:103C80000163704708B590F84210222901D0022044
:103C900008BD82684FF480539A4201D1016921B175
:103CA000816A9A421BD04AB10AE00268816A52686E
:103CB000C2F308020A80816A891C08E0026972B1B5
:103CC0000268526802F07F020A70816A491C8162B0
:103CD000C18D491E0904090CC18503D01BE002688F
:103CE0005268F1E70168CA6822F02002CA600168E0
:103CF000CA6822F48072CA6001684A6922F001022F
:103D00004A61202180F8421000214163026B012AA0
:103D100003D0FFF781FA002008BD016301680C3170
:103D200051E8002F22F0100241E80023002BF5D1CA
:103D300001680A68D20602D50A6849680091818D37
:103D4000FFF7B1F8E7E7000070B5044600680169C5
:103D5000E26821F44051114301612169A0680843E0
:103D6000616908432168CA6841F20C639A430243BF
:103D7000CA6020684169A26921F440711143416120
:103D80001E492068884202D1FEF7EAFC01E0FEF7F6
:103D9000D7FC00EBC00101EB0012606864218000D9
:103DA000B2FBF0F3B3FBF1F36FF018067343B2FB11
:103DB000F0F5B2FBF0F605EB8305322303EB0515B6
:103DC000B5FBF1F5B6FBF1F605F0F00505EB0615D0
:103DD000B2FBF0F6B2FBF0F0B0FBF1F06FF01802BE
:103DE000504306EB800003EB0010B0FBF1F02168BC
:103DF00000F00F002844886070BD000000380140CA
:103E000081628285C28500214164222180F84210AE
:103E1000016921B10168CA6842F48072CA60016810
:103E20004A6942F001024A610068C16841F020011C
:103E3000C1600020704700000148FFF737B800005C
:103E40008C010020FEE7490050EAC12018BF042081
:103E50004A0D18BF40F0010040F2FF72B2EB515F13
:103E600008BF40F00200012808BF0520704709077D
:103E7000090E002804DB00F1E02080F800147047F0
:103E800000F00F0000F1E02080F8141D704730387A
:103E90000A2801D20120704700207047FEF7DEFAA1
:103EA000FFF720FEFFF7AAFBFFF746FCFFF776FCC3
:103EB000FFF7A8FCFFF720FCFFF7E6FCFFF742FB4B
:103EC000FDF74AFFFDF72CFFFFF766FB00F034F823
:103ED000FFF772FB00F04CF8FEE7000008B5074A58
:103EE00001B14021117050700A2000900223034A52
:103EF00078210348FEF7E6F908BD0000A000002085
:103F0000A800002010B5EFF3058149B9EFF3108147
:103F100031B908490968022905D1EFF3118111B1BE
:103F20006FF0050403E0002408B100F0E3FD204633
:103F300010BD000074000020EFF3058058B9EFF3C6
:103F4000108040B909490868022801D030B109E061
:103F5000EFF3118030B16FF0050070470120086069
:103F6000002070474FF0FF307047000074000020C1
:103F700010B5EFF3058060B9EFF3108048B90B4935
:103F80000868022802D0012806D00BE0EFF3118068
:103F900040B16FF0050010BD0220086000F012FE75
:103FA000002010BD4FF0FF3010BD00007400002055
:103FB000F0B585B04FEA01034FF00004EFF305813F
:103FC0000394A1BBEFF3108189BB21490968022941
:103FD00002D1EFF3118151BB48B3802618218DF82F
:103FE000104004AD42B3176807B13D4697691FB151
:103FF00039467F1E382F02D21779FF0702D00020E2
:1040000005B0F0BD576907B1BE08D2F808C0BCF1D1
:10401000000F0DD0D4685C2C18D312693AB137B1B7
:104020008DE806103246294601F027F903900DE08D
:10403000D7685FB912694AB903AACDE90012B2B2D2
:10404000294601F0EDF8012800D003940398D7E742
:10405000740000202DE9F041134C0F4605466669B7
:104060002068001D00F016FC681C07D137B12168DC
:10407000BDE8F0410D48091D00F05CBC20683544E6
:10408000B5424560216805D2A068BDE8F041091D30
:1040900000F038BC6068091D00F034FC206B8542DC
:1040A00000D22563BDE8F081240000200C07002029
:1040B0002DE9F041054600F049FC2D4C2069401CDB
:1040C000206120682B4F10B1E06930B32BE02560F0
:1040D0002069012827D1002606EB860007EB800027
:1040E00000F002FC761C382EF6D3234800F0FCFBCF
:1040F0002148143000F0F8FB1F48283000F0F4FB92
:104100001D483C3000F0F0FB1B48503000F0ECFB49
:10411000194860601430A06005E02068E96AC06A50
:10412000884200D82560E06A401CE0626864E86A62
:10413000A169884200D9A06100EB800007EB8000F4
:10414000291D00F0F7FB00F021FCE06900280CD0ED
:104150002068E96AC06A884207D208494FF0805057
:104160000860BFF34F8FBFF36F8FBDE8F081000091
:10417000240000205C020020BC06002004ED00E0CA
:1041800038B500F0E3FB104CA068C8B90F4800F048
:10419000ABFB0E48143000F0A7FB0C482060143035
:1041A00060600A4B00202833009003F15002102178
:1041B0000A2000F0D9FDA06010B105A100F064FC58
:1041C000BDE8384000F0E2BB60000020200700207E
:1041D000546D72510000000030B4026C0B46002A8E
:1041E0000BD0C1681144C1604468A14201D3016889
:1041F000C16030BC1846FCF79BB830BC70472DE955
:10420000F041856B174604460026026C82B1C7B1A7
:10421000E068FCF78DF8E168206C091AE16022681B
:10422000914202D26168081AE060022F16D017E0AE
:104230002068A8B9606801F0C3F8064600206060F5
:104240000EE0A068FCF774F8216CA0680844A06038
:104250006168884204D32068A06001E005B16D1E4A
:104260006D1CA5633046BDE8F08110B5044690F89A
:10427000590058B101280CD002280FD0502080F3EB
:104280001188BFF34F8FBFF36F8FFEE7206B00F0F5
:1042900091FB2046BDE8104000F08CBB10BD000033
:1042A00010484FF44061420706D0C01D0D4920F070
:1042B0000700411AC1F540610B4A00230144C2E9DD
:1042C00000030839103A21F0070111604B600B60C0
:1042D0000B1AC0E9001393604FF000405360D060A8
:1042E00070470000F00E002088000020144E154C8E
:1042F000A6F29C474FF08058DFF84C9012E000BFC8
:1043000000F024FBF068C568281D00F0C3FA20699E
:10431000401E2061E068401EE06000F037FB284648
:10432000FFF7A3FFE0680028EAD138680128F9D92F
:10433000C9F80080BFF34F8FBFF36F8FF2E7000023
:10434000F80600202400002004ED00E070B51D46B2
:10435000049C51B1C4F80020C4E90F01012120469A
:1043600000F036FD84F84C5070BD2460F4E72DE970
:10437000F0470E46DDE909841746824691009946CA
:10438000089DA522206BFCF718F86FF00301206B45
:1043900001EB8701084420F00707780707D0502079
:1043A00080F31188BFF34F8FBFF36F8FFEE72218A2
:1043B000315C82F83410315C11B1401C1028F6D306
:1043C000002684F84360382D00D33725E562C4E920
:1043D0001356201D00F093FA04F1180000F08FFA34
:1043E0002461C5F138006462A061666584F8586094
:1043F0004A465146384600F03BFA2060B8F1000FBB
:1044000001D0C8F80040BDE8F087000030B5114980
:1044100000E011460A688242FBD34B685C18844274
:1044200003D1406818444860084643681C18944209
:1044300009D1084C103C2468A24209D052681A44A1
:1044400042600A6812680260814200D0086030BD94
:104450000460F9E78800002070B5002441600B4D2E
:104460000061914206D8D11A8269914206D2011D9B
:10447000686807E09A4203D2994201D3012403E01D
:10448000011D286800F03EFA204670BD6000002043
:1044900010B5044600F05AFAA06B28B15FF0000492
:1044A00000F074FA204610BD0124F9E730B589B058
:1044B000304D55E00498002806DADDE90601059A3A
:1044C0009047049800284BDB069C606910B1201DC2
:1044D00000F0E0F902A800F0B9F8024604980A28B2
:1044E0003ED2DFE800F00505053D263705053D26EF
:1044F0000598A169034601442046FFF7ADFF00B3CC
:10450000616A20468847E069012829D1002000908F
:104510000598A169002342181946204601F05AF86F
:1045200078B9502080F31188BFF34F8FBFF36F8F9E
:10453000FEE70598A06128B1811813462046FFF7D1
:104540008BFF0DE0502080F31188BFF34F8FBFF336
:104550006F8FFEE794F82C0010B9204600F02AFA7D
:10456000002204A9A86800F085FD0028A2D109B0A6
:1045700030BD0000600000202DE9FC410F460546DB
:1045800000F064FB01A800F061F80446019818B13E
:1045900000F08EFFBDE8FC81224EAFB1706800686C
:1045A000A8B30027291B3A46B06800F081FA00F052
:1045B0007FFF0028EED11C494FF080500860BFF308
:1045C0004F8FBFF36F8FE5E7A542EBD800F070FF88
:1045D00030682746C068C468201D00F05BF9E069B8
:1045E000012810D1A0692B4641193A462046FFF711
:1045F00033FF40B100200346014600902A46204682
:1046000000F0E8FF20B1616A20468847C2E707E072
:10461000502080F31188BFF34F8FBFF36F8FFEE7F9
:104620000127BFE76000002004ED00E00648416874
:10463000096829B14168C968C96849680163704758
:104640004FF0FF31FAE700002400002070B5054666
:1046500000F04CFE064E04463069844203D200F05E
:1046600009F8012000E0002028602046346170BD78
:1046700060000020F8B5194D1FE0C068C4680668E6
:10468000201D00F007F9616A20468847E06901288B
:1046900013D1A0693044B04206D924616060211D65
:1046A000286800F02FF908E000200346014600903A
:1046B0003246204600F08EFF38B128680168002994
:1046C000DBD16968C5E90010F8BD502080F311887E
:1046D000BFF34F8FBFF36F8FFEE700006000002035
:1046E00008484068401C4FF0500080F3118804D007
:1046F000BFF34F8FBFF36F8FFEE7BFF34F8FBFF353
:104700006F8FFEE790000020074C2068016841B1E0
:10471000C0680021D0F80000FFF72EFFFFF7C6FEAB
:10472000F3E701210020F7E7600000202DE9F041C8
:10473000044600F00BF994F9455004F1240609E011
:10474000606A48B1304600F07BFE08B100F000FA24
:104750006D1E6DB2002DF3DC4FF0FF3684F845601E
:1047600000F014F900F0F2F894F9445004F1100745
:1047700009E0206948B1384600F062FE08B100F057
:10478000E7F96D1E6DB2002DF3DC84F84460BDE8DE
:10479000F04100F0FBB800002DE9F041054600278C
:1047A00000F054FA314E306808B9FFF779FDF0682F
:1047B00005424BD1C5B3083568070ED005F0070098
:1047C000C0F108000544680707D0502080F3118825
:1047D000BFF34F8FBFF36F8FFEE72DB37068854235
:1047E00034D82248103001460C6801E020460C46BF
:1047F0006168A94202D221680029F7D131688C4250
:1048000024D007682168016060680837411B1029BF
:104810000FD96019420708D0502080F31188BFF3E8
:104820004F8FBFF36F8FFEE710E041606560FFF7C9
:10483000EDFD61687068401A7060B268904200D205
:10484000B060F06801430020C4E9000100F030FED0
:10485000780707D0502080F31188BFF34F8FBFF344
:104860006F8FFEE73846BDE8F08100007800002039
:1048700010B5031F4FF080741C601B1F21F0010155
:104880001960191F024B0B60143940380A6010BDC3
:10489000E1460008D0E9013201699A60D0E90123BC
:1048A0005A604A68824201D182684A6000220261ED
:1048B0000868401E0860086870470000034B0360EA
:1048C00003F15C0008608020106070473808002009
:1048D000044B036003F15C0008604FF480701060CB
:1048E00070470000940A002000F108014FF0FF32E9
:1048F000C0E90112C160016100210160704700211F
:104900000161704730B50B685A1C02D000F10802F3
:1049100002E0026904E02246546825689D42FAD903
:1049200053684B6099608A60516008610168491C56
:10493000016030BD42684A6093688B60936859603B
:10494000916008610168491C01607047502080F344
:104950001188BFF34F8FBFF36F8F0A494868401C1F
:10496000486001280CD10848006810F0FF0F07D0FC
:10497000502080F31188BFF34F8FBFF36F8FFEE796
:10498000704700009000002004ED00E008494868EE
:1049900028B1401E486001D180F311887047502033
:1049A00080F31188BFF34F8FBFF36F8FFEE70000D6
:1049B0009000002070B5002827D0144DA0F1080405
:1049C0006168E868014207D1502080F31188BFF385
:1049D0004F8FBFF36F8FFEE722683AB1502080F30C
:1049E0001188BFF34F8FBFF36F8FFEE78143616084
:1049F00000F02CF960686968084468602046FFF799
:104A000005FDBDE8704000F053BD70BD780000208A
:104A10004FF0E02000210161816105494FF47A7275
:104A20000968B1FBF2F1491E41610721016170473C
:104A30000C00002010B5FBF745FC114910280ED3DF
:104A400000F1E02090F8F0030A78904207D250205D
:104A500080F31188BFF34F8FBFF36F8FFEE70948D4
:104A60000068896800F4E060884207D9502080F32C
:104A70001188BFF34F8FBFF36F8FFEE710BD0000AB
:104A8000900000200CED00E010B5084B002200BFA4
:104A900053F832401CB1521C082AF9D310BD43F818
:104AA000321003EBC201486010BD00001C02002060
:104AB00070B515460E460446FFF748FF94F94410BA
:104AC0000020491C01D184F8440094F94510491C88
:104AD00001D184F84500FFF759FFA06B28B92A4699
:104AE000314604F1240000F051F82046BDE8704042
:104AF000FFF71CBE10B5020014D00F48806B38B110
:104B0000502080F31188BFF34F8FBFF36F8FFEE704
:104B100000F09CF800211046FFF79CFA00F0C8FC5A
:104B2000002807D105494FF080500860BFF34F8F30
:104B3000BFF36F8F10BD00002400002004ED00E0E3
:104B400002498A6A02604969416070472400002076
:104B500001490120486270472400002010B50C462E
:104B600050B1094909681831FFF7CCFE2046BDE86D
:104B700010400121FFF76EBA502080F31188BFF377
:104B80004F8FBFF36F8FFEE72400002070B51446EF
:104B90000D4668B10A4909681831FFF7CBFE0CB120
:104BA0004FF0FF3521462846BDE87040FFF752BA66
:104BB000502080F31188BFF34F8FBFF36F8FFEE754
:104BC0002400002030B587B00024039405AA04A96E
:104BD00003A80494FFF772FEDDE903010094CDE918
:104BE0000110002315A11748059A00F046FB164D49
:104BF000002868631FD000F0BDFC012809D0401CCC
:104C000019D1502080F31188BFF34F8FBFF36F8FFE
:104C1000FEE7502080F31188BFF34F8FBFF36F8FF3
:104C20004FF0FF3028630120E8616C6107B0BDE8F8
:104C3000304000F045B807B030BD000049444C4555
:104C400000000000ED420008240000200248816BB3
:104C5000491C81637047000024000020164810B5ED
:104C6000816B11B10121416210BD00214162816956
:104C7000124A01E0B9B1491E01EB810352F8233019
:104C8000002BF7D001EB810302EB830202F1080451
:104C900053685B685360A34201D15B685360DA6874
:104CA0000260816110BD502080F31188BFF34F8FE7
:104CB000BFF36F8FFEE70000240000205C0200209D
:104CC0001CB5264908780190FF20087008788DF8F7
:104CD00000009DF800009DF8002000F0F0009042D8
:104CE00007D0502080F31188BFF34F8FBFF36F8F31
:104CF000FEE79DF800001A4B00F0500018700720E6
:104D0000986005E09DF8002052008DF80020401EBC
:104D10009DF800201206F5D49860032807D0502093
:104D200080F31188BFF34F8FBFF36F8FFEE74FF40F
:104D300040709860019808700A48016841F4700159
:104D40000160016841F070410160FFF761FE0020E1
:104D50005860FBF781FA00201CBD000000E400E071
:104D60009000002020ED00E038B5049D18B153B14B
:104D7000CAB181B120E0502080F31188BFF34F8F7A
:104D8000BFF36F8FFEE7502080F31188BFF34F8F82
:104D9000BFF36F8FFEE7502080F31188BFF34F8F72
:104DA000BFF36F8FFEE739B1502080F31188BFF356
:104DB0004F8FBFF36F8FFEE750241C46012384F80A
:104DC00046302B460094FFF7C1FA204638BD00005C
:104DD00070B50D46040025D0FFF7B8FDD4E90F20CB
:104DE000216802FB001161600021A1632168A160BC
:104DF0000A46D4E90F01401E00FB0121E160214673
:104E00004FF0FF3001F8440F487004F110008DB1ED
:104E1000FFF76AFD04F12400FFF766FDFFF7B6FD1A
:104E2000012070BD502080F31188BFF34F8FBFF376
:104E30006F8FFEE721690029F0D000F001FB002808
:104E4000ECD004494FF080500860BFF34F8FBFF3A0
:104E50006F8FE3E704ED00E02DE9FF4782B01D46C8
:104E60008A464FF00008040003D0BAF1000F08D0C2
:104E700011E0502080F31188BFF34F8FBFF36F8F85
:104E8000FEE7206C38B1502080F31188BFF34F8FBC
:104E9000BFF36F8FFEE7022D0AD1E06B012807D028
:104EA000502080F31188BFF34F8FBFF36F8FFEE761
:104EB00000F00EFA3F4F4FF000094FF0805648B90E
:104EC000049838B1502080F31188BFF34F8FBFF39F
:104ED0006F8FFEE7FFF73AFDA06BE16B884207D3C7
:104EE000022D05D00498D0B1B8F1000F1AD01EE001
:104EF0002A4651462046FFF782F9616A19B104F14A
:104F0000240000F09DFA20B13E60BFF34F8FBFF345
:104F10006F8FFFF73BFD012006B0BDE8F087FFF77C
:104F200035FD22E06846FFF70BFE4FF00108FFF762
:104F30002DFDFFF78BFEFFF709FD94F94400401C9F
:104F400001D184F8449094F94500401C01D184F8C3
:104F50004590FFF71BFD04A9684600F027F930B122
:104F60002046FFF7E3FB00F0A3FA0020D4E7FFF7A9
:104F7000EDFCA06BE16B884213D1FFF707FD04F154
:104F800010000499FFF7EAFD2046FFF7CFFB00F081
:104F90008FFA00289ED13E60BFF34F8FBFF36F8F13
:104FA00098E7FFF7F3FC2046FFF7C0FB00F080FA1C
:104FB00090E7000004ED00E02DE9F0471F46904621
:104FC0008946040003D0B9F1000F08D011E0502049
:104FD00080F31188BFF34F8FBFF36F8FFEE7206C14
:104FE00038B1502080F31188BFF34F8FBFF36F8F1C
:104FF000FEE7022F0AD1E06B012807D0502080F392
:105000001188BFF34F8FBFF36F8FFEE7FFF712FDDD
:105010005020EFF3118680F31188BFF34F8FBFF359
:105020006F8FA06BE16B884206D3022F04D0002063
:1050300086F31188BDE8F08794F945503A46494611
:105040002046FFF7DCF8681C04D06D1C84F845503E
:105050000120EDE7606A0028FAD004F1240000F096
:10506000EFF90028F4D0B8F1000FF1D00121C8F811
:105070000010EDE72DE9F747002683B08A460400CB
:1050800003D0BAF1000F08D011E0502080F311884E
:10509000BFF34F8FBFF36F8FFEE7206C38B1502006
:1050A00080F31188BFF34F8FBFF36F8FFEE700F0DF
:1050B0000FF9DFF8F4804FF000094FF0805748B93E
:1050C000059838B1502080F31188BFF34F8FBFF39C
:1050D0006F8FFEE7FFF73AFCA56BC5B1514620463E
:1050E000FFF77AF86D1EA563206950B104F1100036
:1050F00000F0A6F928B1C8F80070BFF34F8FBFF3D6
:105100006F8FFFF743FC012006B0BDE8F0870598DC
:1051100008B11EB106E0FFF739FC27E06846FFF74B
:105120000FFD0126FFF732FCFFF790FDFFF70EFCA5
:1051300094F94400401C01D184F8449094F945004E
:10514000401C01D184F84590FFF720FC05A9684672
:1051500000F02CF8002820460AD0FFF7E7FA00F00C
:10516000A7F92046FFF794F90028B3D00020CBE739
:10517000FFF78EF990B104F124000599FFF7EEFCDA
:105180002046FFF7D3FA00F093F90028A2D1C8F81F
:105190000070BFF34F8FBFF36F8F9BE72046FFF781
:1051A000C5FA00F085F995E704ED00E02DE9F0413E
:1051B0000C46050011D0C4B1FFF7C8FB174B5A6964
:1051C0006E682068911B471C17D02F689B6A9F420E
:1051D00019D0964217D8012410E0502080F311888E
:1051E000BFF34F8FBFF36F8FFEE7502080F311881E
:1051F000BFF34F8FBFF36F8FFEE70024FFF7C6FBAF
:105200002046BDE8F081884205D9401A2060284632
:10521000FFF796FCF1E700202060DCE72400002087
:105220002DE9FF5F8346DDE90E87994616468A46DB
:105230009000FFF7B1FA05001CD05C20FFF7ACFA34
:10524000040014D00020256384F85900CDE9024001
:10525000CDE900874B46324651465846FFF787F85E
:105260002046FEF725FF012004B0BDE8F09F284648
:10527000FFF7A0FB4FF0FF30F6E7F0B585B0DDE9B2
:105280000B640A9DA6B1DCB15C2700972663022659
:1052900084F85960002604AFCDE90246CDE90057F5
:1052A000FFF765F82046FEF703FF049805B0F0BD50
:1052B000502080F31188BFF34F8FBFF36F8FFEE74D
:1052C000502080F31188BFF34F8FBFF36F8FFEE73D
:1052D0000548C16919B1806B18B1002070470120E1
:1052E00070470220704700002400002001484069F8
:1052F00070470000240000202DE9F0412E4C0027CB
:10530000A06B40B1206A401C2062606A00B1012796
:105310003846BDE8F0816669761C666113D1606825
:10532000006838B1502080F31188BFF34F8FBFF36E
:105330006F8FFEE76068A1686160A060A06A401C92
:10534000A062FFF773F9206BDFF87080864209D303
:105350006068006880B16068C068C5686868864237
:105360000DD220632068C06A00EB800158F821004C
:105370000128CAD90127C8E74FF0FF30F1E7281DFF
:10538000FFF788FAA86A18B105F11800FFF782FA4A
:10539000E86AA169884200D9A06100EB800108EBAE
:1053A0008100291DFFF7C6FAE86A2168C96A8842A8
:1053B000CED30127CCE70000240000205C020020AF
:1053C00070B504004FF0000133D01B4D28688442B3
:1053D00007D0502080F31188BFF34F8FBFF36F8F3A
:1053E000FEE7206D38B1401E2065E36CE26A9A4208
:1053F0001FD040B11DE0502080F31188BFF34F8FC4
:10540000BFF36F8FFEE7201DFFF744FAE06CE06208
:10541000C0F13800A061E06AA969884200D9A8619A
:10542000064900EB800001EB8000211DFFF782FAA6
:105430000121084670BD0000240000205C0200200D
:1054400070B5C068C46854B104F118000646FFF78F
:1054500021FA144DA86B50B13146134815E0502085
:1054600080F31188BFF34F8FBFF36F8FFEE7201DCE
:10547000FFF710FAE06AA969884200D9A8610B49D0
:1054800000EB800001EB8000211DFFF753FAE06A7A
:105490002968C96A884202D90120686270BD00206B
:1054A00070BD000024000020E40600205C02002003
:1054B0002DE9F0472C4D00242746A86B38B1FFF7A3
:1054C00045FAA86B401EA863A86B40B146E0502087
:1054D00080F31188BFF34F8FBFF36F8FFEE7296909
:1054E000224E0120D1B3A6F5916980463068E0B123
:1054F000F068C46804F11800FFF7CCF9201DFFF72D
:10550000C9F9E06AA969884200D9A86100EB800165
:1055100009EB8100211DFFF70DFAE06A2968C96ACD
:105520008842E3D3C5F82480E0E70CB1FFF77EF8AA
:105530002C6A4CB14FEA0806FFF7DEFE00B16E623E
:10554000641EF9D100202862686A38B10849012731
:1055500038070860BFF34F8FBFF36F8FFFF716FA5E
:105560003846BDE8F087000024000020E406002053
:1055700004ED00E010B586B0FEF702FE114CA06805
:10558000B8B100200390049005AA04A903A8FFF76E
:105590009FF9DDE9032102208DE8070000230AA11D
:1055A0000B48059AFFF769FEE06010B106B00120D4
:1055B00010BD502080F31188BFF34F8FBFF36F8F62
:1055C000FEE7000060000020546D722053766300F7
:1055D000094700082DE9FF411E46134602000A9DB7
:1055E0004FF0000016D0144CA768002F0FD0CDE963
:1055F00000130292062917DAFFF76AFE02284FF01D
:1056000000030FD000226946A068FFF725FC04B014
:10561000BDE8F081502080F31188BFF34F8FBFF3B6
:105620006F8FFEE72A46EEE700233246694638468A
:10563000FFF7C2FCEBE700006000002010B5002976
:105640000AD00878002807D005487844FBF758FFAF
:10565000002801D0002010BD0248784410BD000091
:10566000A20600009A06000010B500290AD00878AA
:10567000002807D005487844FBF742FF002801D0F6
:10568000002010BD0248784410BD000092060000C2
:105690008A060000FBF741BBFBF776BC0102020360
:1056A0000405060708090A0B0C0D0E0F1010000068
:1056B00000000000000001020304060708090000C2
:1056C0000000010203040000C05C000800000000AC
:1056D00000000000000000000000000000020000C8
:1056E000180000000000000000000000B45C00088A
:1056F00000000000000000000000000000000000AA
:10570000000200000800000000000000000000008F
:10571000A45C000800000000000000000000000081
:10572000000000000002000008000000000000006F
:105730000000000000000000000000000000000069
:10574000000000003F4000000000000000003000AA
:10575000400030004000000009000BC03D000BC0BD
:105760003D00090018C024407FE022403180000045
:10577000180024C01B000D803240018003801C40B3
:1057800027401C800740004010006000000000001F
:10579000000000000000000000001F8020404020AA
:1057A0000000402020401F8000000000090006008B
:1057B0001F80060009000000040004003F80040070
:1057C0000400000000100060000000000000000065
:1057D0000400040004000400040000000000004075
:1057E0000000000000000000002001C0060038009A
:1057F000400000001F802040204020401F8000000B
:10580000000010403FC000400000000018C02140D0
:1058100022402440184000001080204024402440B2
:105820001B80000002000D0011003FC0014000007D
:105830003C80244024402440238000001F802440DA
:1058400024403440038000003000200027C038008E
:10585000200000001B802440244024401B800000C6
:105860001C0022C0224022401F80000000000000D7
:10587000084000000000000000000000046000007C
:1058800000000000000004000A00110020804040D9
:10589000090009000900090009000000000040405B
:1058A000208011000A00040018002000234024007A
:1058B000180000001F802040274029401F400000A2
:1058C000004007C039000F0001C0004020403FC029
:1058D000244024401B8000001F80204020402040A6
:1058E0003080000020403FC0204020401F8000004A
:1058F00020403FC024402E4030C0000020403FC028
:1059000024402E00300000000F0010802040224074
:105910003380020020403FC0040004003FC020400C
:10592000204020403FC02040204000000060202058
:1059300020203FC02000200020403FC024400B001A
:1059400030C0204020403FC020400040004000C008
:105950003FC03C0003C03C003FC0000020403FC0AF
:105960000C4023003FC020001F80204020402040EA
:105970001F80000020403FC0244024001800000089
:105980001F802140214020E01FA0000020403FC098
:105990002440260019C0004018C024402440224062
:1059A00031800000300020403FC020403000000027
:1059B00020003F80004000403F80200020003E004B
:1059C00001C0070038002000380007C03C0007C0B5
:1059D00038000000204039C0060039C020400000D7
:1059E0002000384007C0384020000000304021C06F
:1059F0002640384020C00000000000007FE040202A
:105A000040200000000070000C00038000400000F7
:105A10000000402040207FE0000000000000200047
:105A200040002000000000000010001000100010D6
:105A30000010001000000000400000000000000006
:105A4000000002800540054003C0004020003FC028
:105A50000440044003800000000003800440044030
:105A60000640000000000380044024403FC0004086
:105A70000000038005400540034000000000044092
:105A80001FC0244024402000000002E005500550C3
:105A90000650042020403FC00440040003C00040E2
:105AA0000000044027C0004000000000001000106B
:105AB000041027E00000000020403FC00140070024
:105AC00004C00440204020403FC00040004000008F
:105AD00007C0040007C0040003C00000044007C062
